{
	"ItemManager.sol": {
		"ItemManager": {
			"abi": [
				{
					"anonymous": false,
					"inputs": [
						{
							"indexed": false,
							"internalType": "uint256",
							"name": "_itemIndex",
							"type": "uint256"
						},
						{
							"indexed": false,
							"internalType": "uint256",
							"name": "_step",
							"type": "uint256"
						}
					],
					"name": "SupplyChainStep",
					"type": "event"
				},
				{
					"inputs": [
						{
							"internalType": "string",
							"name": "_identifier",
							"type": "string"
						},
						{
							"internalType": "uint256",
							"name": "_priceInWei",
							"type": "uint256"
						}
					],
					"name": "createItem",
					"outputs": [],
					"stateMutability": "nonpayable",
					"type": "function"
				},
				{
					"inputs": [
						{
							"internalType": "uint256",
							"name": "",
							"type": "uint256"
						}
					],
					"name": "items",
					"outputs": [
						{
							"internalType": "enum ItemManager.SupplyChainSteps",
							"name": "_step",
							"type": "uint8"
						},
						{
							"internalType": "string",
							"name": "_identifier",
							"type": "string"
						},
						{
							"internalType": "uint256",
							"name": "_priceInWei",
							"type": "uint256"
						}
					],
					"stateMutability": "view",
					"type": "function"
				},
				{
					"inputs": [
						{
							"internalType": "uint256",
							"name": "_index",
							"type": "uint256"
						}
					],
					"name": "triggerDelivery",
					"outputs": [],
					"stateMutability": "nonpayable",
					"type": "function"
				},
				{
					"inputs": [
						{
							"internalType": "uint256",
							"name": "_index",
							"type": "uint256"
						}
					],
					"name": "triggerPayment",
					"outputs": [],
					"stateMutability": "payable",
					"type": "function"
				}
			],
			"devdoc": {
				"kind": "dev",
				"methods": {},
				"version": 1
			},
			"evm": {
				"assembly": "    /* \"ItemManager.sol\":57:1216  contract ItemManager{\r... */\n  mstore(0x40, 0x80)\n  callvalue\n  dup1\n  iszero\n  tag_1\n  jumpi\n  0x00\n  dup1\n  revert\ntag_1:\n  pop\n  dataSize(sub_0)\n  dup1\n  dataOffset(sub_0)\n  0x00\n  codecopy\n  0x00\n  return\nstop\n\nsub_0: assembly {\n        /* \"ItemManager.sol\":57:1216  contract ItemManager{\r... */\n      mstore(0x40, 0x80)\n      jumpi(tag_1, lt(calldatasize, 0x04))\n      shr(0xe0, calldataload(0x00))\n      dup1\n      0x800fb83f\n      eq\n      tag_2\n      jumpi\n      dup1\n      0x8c551742\n      eq\n      tag_3\n      jumpi\n      dup1\n      0xbfb231d2\n      eq\n      tag_4\n      jumpi\n      dup1\n      0xcd31831e\n      eq\n      tag_5\n      jumpi\n    tag_1:\n      0x00\n      dup1\n      revert\n        /* \"ItemManager.sol\":622:953  function triggerPayment(uint _index) public payable {\r... */\n    tag_2:\n      tag_6\n      0x04\n      dup1\n      calldatasize\n      sub\n      0x20\n      dup2\n      lt\n      iszero\n      tag_7\n      jumpi\n      0x00\n      dup1\n      revert\n    tag_7:\n      dup2\n      add\n      swap1\n      dup1\n      dup1\n      calldataload\n      swap1\n      0x20\n      add\n      swap1\n      swap3\n      swap2\n      swap1\n      pop\n      pop\n      pop\n      tag_8\n      jump\t// in\n    tag_6:\n      stop\n        /* \"ItemManager.sol\":341:619  function createItem(string memory _identifier, uint _priceInWei) public {\r... */\n    tag_3:\n      callvalue\n      dup1\n      iszero\n      tag_9\n      jumpi\n      0x00\n      dup1\n      revert\n    tag_9:\n      pop\n      tag_10\n      0x04\n      dup1\n      calldatasize\n      sub\n      0x40\n      dup2\n      lt\n      iszero\n      tag_11\n      jumpi\n      0x00\n      dup1\n      revert\n    tag_11:\n      dup2\n      add\n      swap1\n      dup1\n      dup1\n      calldataload\n      swap1\n      0x20\n      add\n      swap1\n      0x0100000000\n      dup2\n      gt\n      iszero\n      tag_12\n      jumpi\n      0x00\n      dup1\n      revert\n    tag_12:\n      dup3\n      add\n      dup4\n      0x20\n      dup3\n      add\n      gt\n      iszero\n      tag_13\n      jumpi\n      0x00\n      dup1\n      revert\n    tag_13:\n      dup1\n      calldataload\n      swap1\n      0x20\n      add\n      swap2\n      dup5\n      0x01\n      dup4\n      mul\n      dup5\n      add\n      gt\n      0x0100000000\n      dup4\n      gt\n      or\n      iszero\n      tag_14\n      jumpi\n      0x00\n      dup1\n      revert\n    tag_14:\n      swap2\n      swap1\n      dup1\n      dup1\n      0x1f\n      add\n      0x20\n      dup1\n      swap2\n      div\n      mul\n      0x20\n      add\n      mload(0x40)\n      swap1\n      dup2\n      add\n      0x40\n      mstore\n      dup1\n      swap4\n      swap3\n      swap2\n      swap1\n      dup2\n      dup2\n      mstore\n      0x20\n      add\n      dup4\n      dup4\n      dup1\n      dup3\n      dup5\n      calldatacopy\n      0x00\n      dup2\n      dup5\n      add\n      mstore\n      not(0x1f)\n      0x1f\n      dup3\n      add\n      and\n      swap1\n      pop\n      dup1\n      dup4\n      add\n      swap3\n      pop\n      pop\n      pop\n      pop\n      pop\n      pop\n      pop\n      swap2\n      swap3\n      swap2\n      swap3\n      swap1\n      dup1\n      calldataload\n      swap1\n      0x20\n      add\n      swap1\n      swap3\n      swap2\n      swap1\n      pop\n      pop\n      pop\n      tag_15\n      jump\t// in\n    tag_10:\n      stop\n        /* \"ItemManager.sol\":233:269  mapping(uint => S_Item) public items */\n    tag_4:\n      callvalue\n      dup1\n      iszero\n      tag_16\n      jumpi\n      0x00\n      dup1\n      revert\n    tag_16:\n      pop\n      tag_17\n      0x04\n      dup1\n      calldatasize\n      sub\n      0x20\n      dup2\n      lt\n      iszero\n      tag_18\n      jumpi\n      0x00\n      dup1\n      revert\n    tag_18:\n      dup2\n      add\n      swap1\n      dup1\n      dup1\n      calldataload\n      swap1\n      0x20\n      add\n      swap1\n      swap3\n      swap2\n      swap1\n      pop\n      pop\n      pop\n      tag_19\n      jump\t// in\n    tag_17:\n      mload(0x40)\n      dup1\n      dup5\n      0x02\n      dup2\n      gt\n      iszero\n      tag_20\n      jumpi\n      invalid\n    tag_20:\n      dup2\n      mstore\n      0x20\n      add\n      dup1\n      0x20\n      add\n      dup4\n      dup2\n      mstore\n      0x20\n      add\n      dup3\n      dup2\n      sub\n      dup3\n      mstore\n      dup5\n      dup2\n      dup2\n      mload\n      dup2\n      mstore\n      0x20\n      add\n      swap2\n      pop\n      dup1\n      mload\n      swap1\n      0x20\n      add\n      swap1\n      dup1\n      dup4\n      dup4\n      0x00\n    tag_21:\n      dup4\n      dup2\n      lt\n      iszero\n      tag_23\n      jumpi\n      dup1\n      dup3\n      add\n      mload\n      dup2\n      dup5\n      add\n      mstore\n      0x20\n      dup2\n      add\n      swap1\n      pop\n      jump(tag_21)\n    tag_23:\n      pop\n      pop\n      pop\n      pop\n      swap1\n      pop\n      swap1\n      dup2\n      add\n      swap1\n      0x1f\n      and\n      dup1\n      iszero\n      tag_24\n      jumpi\n      dup1\n      dup3\n      sub\n      dup1\n      mload\n      0x01\n      dup4\n      0x20\n      sub\n      0x0100\n      exp\n      sub\n      not\n      and\n      dup2\n      mstore\n      0x20\n      add\n      swap2\n      pop\n    tag_24:\n      pop\n      swap5\n      pop\n      pop\n      pop\n      pop\n      pop\n      mload(0x40)\n      dup1\n      swap2\n      sub\n      swap1\n      return\n        /* \"ItemManager.sol\":956:1213  function triggerDelivery(uint _index) public {\r... */\n    tag_5:\n      callvalue\n      dup1\n      iszero\n      tag_25\n      jumpi\n      0x00\n      dup1\n      revert\n    tag_25:\n      pop\n      tag_26\n      0x04\n      dup1\n      calldatasize\n      sub\n      0x20\n      dup2\n      lt\n      iszero\n      tag_27\n      jumpi\n      0x00\n      dup1\n      revert\n    tag_27:\n      dup2\n      add\n      swap1\n      dup1\n      dup1\n      calldataload\n      swap1\n      0x20\n      add\n      swap1\n      swap3\n      swap2\n      swap1\n      pop\n      pop\n      pop\n      tag_28\n      jump\t// in\n    tag_26:\n      stop\n        /* \"ItemManager.sol\":622:953  function triggerPayment(uint _index) public payable {\r... */\n    tag_8:\n        /* \"ItemManager.sol\":715:724  msg.value */\n      callvalue\n        /* \"ItemManager.sol\":686:691  items */\n      0x00\n        /* \"ItemManager.sol\":686:699  items[_index] */\n      dup1\n        /* \"ItemManager.sol\":692:698  _index */\n      dup4\n        /* \"ItemManager.sol\":686:699  items[_index] */\n      dup2\n      mstore\n      0x20\n      add\n      swap1\n      dup2\n      mstore\n      0x20\n      add\n      0x00\n      keccak256\n        /* \"ItemManager.sol\":686:711  items[_index]._priceInWei */\n      0x02\n      add\n      sload\n        /* \"ItemManager.sol\":686:724  items[_index]._priceInWei <= msg.value */\n      gt\n      iszero\n        /* \"ItemManager.sol\":678:743  require(items[_index]._priceInWei <= msg.value, \"Not fully paid\") */\n      tag_30\n      jumpi\n      mload(0x40)\n      0x08c379a000000000000000000000000000000000000000000000000000000000\n      dup2\n      mstore\n      0x04\n      add\n      dup1\n      dup1\n      0x20\n      add\n      dup3\n      dup2\n      sub\n      dup3\n      mstore\n      0x0e\n      dup2\n      mstore\n      0x20\n      add\n      dup1\n      0x4e6f742066756c6c792070616964000000000000000000000000000000000000\n      dup2\n      mstore\n      pop\n      0x20\n      add\n      swap2\n      pop\n      pop\n      mload(0x40)\n      dup1\n      swap2\n      sub\n      swap1\n      revert\n    tag_30:\n        /* \"ItemManager.sol\":778:802  SupplyChainSteps.Created */\n      0x00\n        /* \"ItemManager.sol\":755:802  items[_index]._step == SupplyChainSteps.Created */\n      0x02\n      dup2\n      gt\n      iszero\n      tag_31\n      jumpi\n      invalid\n    tag_31:\n        /* \"ItemManager.sol\":755:760  items */\n      0x00\n        /* \"ItemManager.sol\":755:768  items[_index] */\n      dup1\n        /* \"ItemManager.sol\":761:767  _index */\n      dup4\n        /* \"ItemManager.sol\":755:768  items[_index] */\n      dup2\n      mstore\n      0x20\n      add\n      swap1\n      dup2\n      mstore\n      0x20\n      add\n      0x00\n      keccak256\n        /* \"ItemManager.sol\":755:774  items[_index]._step */\n      0x00\n      add\n      0x00\n      swap1\n      sload\n      swap1\n      0x0100\n      exp\n      swap1\n      div\n      0xff\n      and\n        /* \"ItemManager.sol\":755:802  items[_index]._step == SupplyChainSteps.Created */\n      0x02\n      dup2\n      gt\n      iszero\n      tag_32\n      jumpi\n      invalid\n    tag_32:\n      eq\n        /* \"ItemManager.sol\":747:842  require(items[_index]._step == SupplyChainSteps.Created, \"Item is further in the supply chain\") */\n      tag_33\n      jumpi\n      mload(0x40)\n      0x08c379a000000000000000000000000000000000000000000000000000000000\n      dup2\n      mstore\n      0x04\n      add\n      dup1\n      dup1\n      0x20\n      add\n      dup3\n      dup2\n      sub\n      dup3\n      mstore\n      0x23\n      dup2\n      mstore\n      0x20\n      add\n      dup1\n      data_cf6eddebde2c463e4fff7b7a8ba8005d044b0974a03f3900855b551d6530c382\n      0x23\n      swap2\n      codecopy\n      0x40\n      add\n      swap2\n      pop\n      pop\n      mload(0x40)\n      dup1\n      swap2\n      sub\n      swap1\n      revert\n    tag_33:\n        /* \"ItemManager.sol\":868:889  SupplyChainSteps.Paid */\n      0x01\n        /* \"ItemManager.sol\":846:851  items */\n      0x00\n        /* \"ItemManager.sol\":846:859  items[_index] */\n      dup1\n        /* \"ItemManager.sol\":852:858  _index */\n      dup4\n        /* \"ItemManager.sol\":846:859  items[_index] */\n      dup2\n      mstore\n      0x20\n      add\n      swap1\n      dup2\n      mstore\n      0x20\n      add\n      0x00\n      keccak256\n        /* \"ItemManager.sol\":846:865  items[_index]._step */\n      0x00\n      add\n      0x00\n        /* \"ItemManager.sol\":846:889  items[_index]._step = SupplyChainSteps.Paid */\n      0x0100\n      exp\n      dup2\n      sload\n      dup2\n      0xff\n      mul\n      not\n      and\n      swap1\n      dup4\n      0x02\n      dup2\n      gt\n      iszero\n      tag_34\n      jumpi\n      invalid\n    tag_34:\n      mul\n      or\n      swap1\n      sstore\n      pop\n        /* \"ItemManager.sol\":898:948  SupplyChainStep(_index, uint(items[_index]._step)) */\n      0x8c198761ba3d324d155cbaf96f0ac38a531c085089e49106d95352535a1110c2\n        /* \"ItemManager.sol\":914:920  _index */\n      dup2\n        /* \"ItemManager.sol\":927:932  items */\n      0x00\n        /* \"ItemManager.sol\":927:940  items[_index] */\n      dup1\n        /* \"ItemManager.sol\":933:939  _index */\n      dup5\n        /* \"ItemManager.sol\":927:940  items[_index] */\n      dup2\n      mstore\n      0x20\n      add\n      swap1\n      dup2\n      mstore\n      0x20\n      add\n      0x00\n      keccak256\n        /* \"ItemManager.sol\":927:946  items[_index]._step */\n      0x00\n      add\n      0x00\n      swap1\n      sload\n      swap1\n      0x0100\n      exp\n      swap1\n      div\n      0xff\n      and\n        /* \"ItemManager.sol\":922:947  uint(items[_index]._step) */\n      0x02\n      dup2\n      gt\n      iszero\n      tag_35\n      jumpi\n      invalid\n    tag_35:\n        /* \"ItemManager.sol\":898:948  SupplyChainStep(_index, uint(items[_index]._step)) */\n      mload(0x40)\n      dup1\n      dup4\n      dup2\n      mstore\n      0x20\n      add\n      dup3\n      dup2\n      mstore\n      0x20\n      add\n      swap3\n      pop\n      pop\n      pop\n      mload(0x40)\n      dup1\n      swap2\n      sub\n      swap1\n      log1\n        /* \"ItemManager.sol\":622:953  function triggerPayment(uint _index) public payable {\r... */\n      pop\n      jump\t// out\n        /* \"ItemManager.sol\":341:619  function createItem(string memory _identifier, uint _priceInWei) public {\r... */\n    tag_15:\n        /* \"ItemManager.sol\":444:455  _priceInWei */\n      dup1\n        /* \"ItemManager.sol\":417:422  items */\n      0x00\n        /* \"ItemManager.sol\":417:429  items[index] */\n      dup1\n        /* \"ItemManager.sol\":423:428  index */\n      sload(0x01)\n        /* \"ItemManager.sol\":417:429  items[index] */\n      dup2\n      mstore\n      0x20\n      add\n      swap1\n      dup2\n      mstore\n      0x20\n      add\n      0x00\n      keccak256\n        /* \"ItemManager.sol\":417:441  items[index]._priceInWei */\n      0x02\n      add\n        /* \"ItemManager.sol\":417:455  items[index]._priceInWei = _priceInWei */\n      dup2\n      swap1\n      sstore\n      pop\n        /* \"ItemManager.sol\":480:504  SupplyChainSteps.Created */\n      0x00\n        /* \"ItemManager.sol\":459:464  items */\n      dup1\n        /* \"ItemManager.sol\":459:471  items[index] */\n      0x00\n        /* \"ItemManager.sol\":465:470  index */\n      sload(0x01)\n        /* \"ItemManager.sol\":459:471  items[index] */\n      dup2\n      mstore\n      0x20\n      add\n      swap1\n      dup2\n      mstore\n      0x20\n      add\n      0x00\n      keccak256\n        /* \"ItemManager.sol\":459:477  items[index]._step */\n      0x00\n      add\n      0x00\n        /* \"ItemManager.sol\":459:504  items[index]._step = SupplyChainSteps.Created */\n      0x0100\n      exp\n      dup2\n      sload\n      dup2\n      0xff\n      mul\n      not\n      and\n      swap1\n      dup4\n      0x02\n      dup2\n      gt\n      iszero\n      tag_37\n      jumpi\n      invalid\n    tag_37:\n      mul\n      or\n      swap1\n      sstore\n      pop\n        /* \"ItemManager.sol\":535:546  _identifier */\n      dup2\n        /* \"ItemManager.sol\":508:513  items */\n      0x00\n        /* \"ItemManager.sol\":508:520  items[index] */\n      dup1\n        /* \"ItemManager.sol\":514:519  index */\n      sload(0x01)\n        /* \"ItemManager.sol\":508:520  items[index] */\n      dup2\n      mstore\n      0x20\n      add\n      swap1\n      dup2\n      mstore\n      0x20\n      add\n      0x00\n      keccak256\n        /* \"ItemManager.sol\":508:532  items[index]._identifier */\n      0x01\n      add\n        /* \"ItemManager.sol\":508:546  items[index]._identifier = _identifier */\n      swap1\n      dup1\n      mload\n      swap1\n      0x20\n      add\n      swap1\n      tag_38\n      swap3\n      swap2\n      swap1\n      tag_39\n      jump\t// in\n    tag_38:\n      pop\n        /* \"ItemManager.sol\":555:603  SupplyChainStep(index, uint(items[index]._step)) */\n      0x8c198761ba3d324d155cbaf96f0ac38a531c085089e49106d95352535a1110c2\n        /* \"ItemManager.sol\":571:576  index */\n      sload(0x01)\n        /* \"ItemManager.sol\":583:588  items */\n      0x00\n        /* \"ItemManager.sol\":583:595  items[index] */\n      dup1\n        /* \"ItemManager.sol\":589:594  index */\n      sload(0x01)\n        /* \"ItemManager.sol\":583:595  items[index] */\n      dup2\n      mstore\n      0x20\n      add\n      swap1\n      dup2\n      mstore\n      0x20\n      add\n      0x00\n      keccak256\n        /* \"ItemManager.sol\":583:601  items[index]._step */\n      0x00\n      add\n      0x00\n      swap1\n      sload\n      swap1\n      0x0100\n      exp\n      swap1\n      div\n      0xff\n      and\n        /* \"ItemManager.sol\":578:602  uint(items[index]._step) */\n      0x02\n      dup2\n      gt\n      iszero\n      tag_40\n      jumpi\n      invalid\n    tag_40:\n        /* \"ItemManager.sol\":555:603  SupplyChainStep(index, uint(items[index]._step)) */\n      mload(0x40)\n      dup1\n      dup4\n      dup2\n      mstore\n      0x20\n      add\n      dup3\n      dup2\n      mstore\n      0x20\n      add\n      swap3\n      pop\n      pop\n      pop\n      mload(0x40)\n      dup1\n      swap2\n      sub\n      swap1\n      log1\n        /* \"ItemManager.sol\":607:612  index */\n      0x01\n      0x00\n        /* \"ItemManager.sol\":607:614  index++ */\n      dup2\n      sload\n      dup1\n      swap3\n      swap2\n      swap1\n      0x01\n      add\n      swap2\n      swap1\n      pop\n      sstore\n      pop\n        /* \"ItemManager.sol\":341:619  function createItem(string memory _identifier, uint _priceInWei) public {\r... */\n      pop\n      pop\n      jump\t// out\n        /* \"ItemManager.sol\":233:269  mapping(uint => S_Item) public items */\n    tag_19:\n      mstore(0x20, 0x00)\n      dup1\n      0x00\n      mstore\n      keccak256(0x00, 0x40)\n      0x00\n      swap2\n      pop\n      swap1\n      pop\n      dup1\n      0x00\n      add\n      0x00\n      swap1\n      sload\n      swap1\n      0x0100\n      exp\n      swap1\n      div\n      0xff\n      and\n      swap1\n      dup1\n      0x01\n      add\n      dup1\n      sload\n      0x01\n      dup2\n      0x01\n      and\n      iszero\n      0x0100\n      mul\n      sub\n      and\n      0x02\n      swap1\n      div\n      dup1\n      0x1f\n      add\n      0x20\n      dup1\n      swap2\n      div\n      mul\n      0x20\n      add\n      mload(0x40)\n      swap1\n      dup2\n      add\n      0x40\n      mstore\n      dup1\n      swap3\n      swap2\n      swap1\n      dup2\n      dup2\n      mstore\n      0x20\n      add\n      dup3\n      dup1\n      sload\n      0x01\n      dup2\n      0x01\n      and\n      iszero\n      0x0100\n      mul\n      sub\n      and\n      0x02\n      swap1\n      div\n      dup1\n      iszero\n      tag_41\n      jumpi\n      dup1\n      0x1f\n      lt\n      tag_42\n      jumpi\n      0x0100\n      dup1\n      dup4\n      sload\n      div\n      mul\n      dup4\n      mstore\n      swap2\n      0x20\n      add\n      swap2\n      jump(tag_41)\n    tag_42:\n      dup3\n      add\n      swap2\n      swap1\n      0x00\n      mstore\n      keccak256(0x00, 0x20)\n      swap1\n    tag_43:\n      dup2\n      sload\n      dup2\n      mstore\n      swap1\n      0x01\n      add\n      swap1\n      0x20\n      add\n      dup1\n      dup4\n      gt\n      tag_43\n      jumpi\n      dup3\n      swap1\n      sub\n      0x1f\n      and\n      dup3\n      add\n      swap2\n    tag_41:\n      pop\n      pop\n      pop\n      pop\n      pop\n      swap1\n      dup1\n      0x02\n      add\n      sload\n      swap1\n      pop\n      dup4\n      jump\t// out\n        /* \"ItemManager.sol\":956:1213  function triggerDelivery(uint _index) public {\r... */\n    tag_28:\n        /* \"ItemManager.sol\":1036:1057  SupplyChainSteps.Paid */\n      0x01\n        /* \"ItemManager.sol\":1013:1057  items[_index]._step == SupplyChainSteps.Paid */\n      0x02\n      dup2\n      gt\n      iszero\n      tag_45\n      jumpi\n      invalid\n    tag_45:\n        /* \"ItemManager.sol\":1013:1018  items */\n      0x00\n        /* \"ItemManager.sol\":1013:1026  items[_index] */\n      dup1\n        /* \"ItemManager.sol\":1019:1025  _index */\n      dup4\n        /* \"ItemManager.sol\":1013:1026  items[_index] */\n      dup2\n      mstore\n      0x20\n      add\n      swap1\n      dup2\n      mstore\n      0x20\n      add\n      0x00\n      keccak256\n        /* \"ItemManager.sol\":1013:1032  items[_index]._step */\n      0x00\n      add\n      0x00\n      swap1\n      sload\n      swap1\n      0x0100\n      exp\n      swap1\n      div\n      0xff\n      and\n        /* \"ItemManager.sol\":1013:1057  items[_index]._step == SupplyChainSteps.Paid */\n      0x02\n      dup2\n      gt\n      iszero\n      tag_46\n      jumpi\n      invalid\n    tag_46:\n      eq\n        /* \"ItemManager.sol\":1005:1097  require(items[_index]._step == SupplyChainSteps.Paid, \"Item is further in the supply chain\") */\n      tag_47\n      jumpi\n      mload(0x40)\n      0x08c379a000000000000000000000000000000000000000000000000000000000\n      dup2\n      mstore\n      0x04\n      add\n      dup1\n      dup1\n      0x20\n      add\n      dup3\n      dup2\n      sub\n      dup3\n      mstore\n      0x23\n      dup2\n      mstore\n      0x20\n      add\n      dup1\n      data_cf6eddebde2c463e4fff7b7a8ba8005d044b0974a03f3900855b551d6530c382\n      0x23\n      swap2\n      codecopy\n      0x40\n      add\n      swap2\n      pop\n      pop\n      mload(0x40)\n      dup1\n      swap2\n      sub\n      swap1\n      revert\n    tag_47:\n        /* \"ItemManager.sol\":1123:1149  SupplyChainSteps.Delivered */\n      0x02\n        /* \"ItemManager.sol\":1101:1106  items */\n      0x00\n        /* \"ItemManager.sol\":1101:1114  items[_index] */\n      dup1\n        /* \"ItemManager.sol\":1107:1113  _index */\n      dup4\n        /* \"ItemManager.sol\":1101:1114  items[_index] */\n      dup2\n      mstore\n      0x20\n      add\n      swap1\n      dup2\n      mstore\n      0x20\n      add\n      0x00\n      keccak256\n        /* \"ItemManager.sol\":1101:1120  items[_index]._step */\n      0x00\n      add\n      0x00\n        /* \"ItemManager.sol\":1101:1149  items[_index]._step = SupplyChainSteps.Delivered */\n      0x0100\n      exp\n      dup2\n      sload\n      dup2\n      0xff\n      mul\n      not\n      and\n      swap1\n      dup4\n      0x02\n      dup2\n      gt\n      iszero\n      tag_48\n      jumpi\n      invalid\n    tag_48:\n      mul\n      or\n      swap1\n      sstore\n      pop\n        /* \"ItemManager.sol\":1158:1208  SupplyChainStep(_index, uint(items[_index]._step)) */\n      0x8c198761ba3d324d155cbaf96f0ac38a531c085089e49106d95352535a1110c2\n        /* \"ItemManager.sol\":1174:1180  _index */\n      dup2\n        /* \"ItemManager.sol\":1187:1192  items */\n      0x00\n        /* \"ItemManager.sol\":1187:1200  items[_index] */\n      dup1\n        /* \"ItemManager.sol\":1193:1199  _index */\n      dup5\n        /* \"ItemManager.sol\":1187:1200  items[_index] */\n      dup2\n      mstore\n      0x20\n      add\n      swap1\n      dup2\n      mstore\n      0x20\n      add\n      0x00\n      keccak256\n        /* \"ItemManager.sol\":1187:1206  items[_index]._step */\n      0x00\n      add\n      0x00\n      swap1\n      sload\n      swap1\n      0x0100\n      exp\n      swap1\n      div\n      0xff\n      and\n        /* \"ItemManager.sol\":1182:1207  uint(items[_index]._step) */\n      0x02\n      dup2\n      gt\n      iszero\n      tag_49\n      jumpi\n      invalid\n    tag_49:\n        /* \"ItemManager.sol\":1158:1208  SupplyChainStep(_index, uint(items[_index]._step)) */\n      mload(0x40)\n      dup1\n      dup4\n      dup2\n      mstore\n      0x20\n      add\n      dup3\n      dup2\n      mstore\n      0x20\n      add\n      swap3\n      pop\n      pop\n      pop\n      mload(0x40)\n      dup1\n      swap2\n      sub\n      swap1\n      log1\n        /* \"ItemManager.sol\":956:1213  function triggerDelivery(uint _index) public {\r... */\n      pop\n      jump\t// out\n    tag_39:\n      dup3\n      dup1\n      sload\n      0x01\n      dup2\n      0x01\n      and\n      iszero\n      0x0100\n      mul\n      sub\n      and\n      0x02\n      swap1\n      div\n      swap1\n      0x00\n      mstore\n      keccak256(0x00, 0x20)\n      swap1\n      0x1f\n      add\n      0x20\n      swap1\n      div\n      dup2\n      add\n      swap3\n      dup3\n      0x1f\n      lt\n      tag_51\n      jumpi\n      dup1\n      mload\n      not(0xff)\n      and\n      dup4\n      dup1\n      add\n      or\n      dup6\n      sstore\n      jump(tag_50)\n    tag_51:\n      dup3\n      dup1\n      add\n      0x01\n      add\n      dup6\n      sstore\n      dup3\n      iszero\n      tag_50\n      jumpi\n      swap2\n      dup3\n      add\n    tag_52:\n      dup3\n      dup2\n      gt\n      iszero\n      tag_53\n      jumpi\n      dup3\n      mload\n      dup3\n      sstore\n      swap2\n      0x20\n      add\n      swap2\n      swap1\n      0x01\n      add\n      swap1\n      jump(tag_52)\n    tag_53:\n    tag_50:\n      pop\n      swap1\n      pop\n      tag_54\n      swap2\n      swap1\n      tag_55\n      jump\t// in\n    tag_54:\n      pop\n      swap1\n      jump\t// out\n    tag_55:\n    tag_56:\n      dup1\n      dup3\n      gt\n      iszero\n      tag_57\n      jumpi\n      0x00\n      dup2\n      0x00\n      swap1\n      sstore\n      pop\n      0x01\n      add\n      jump(tag_56)\n    tag_57:\n      pop\n      swap1\n      jump\t// out\n    stop\n    data_cf6eddebde2c463e4fff7b7a8ba8005d044b0974a03f3900855b551d6530c382 4974656d206973206675727468657220696e2074686520737570706c7920636861696e\n\n    auxdata: 0xa26469706673582212206d285387d0cedc8b00d6fbf03a690a38645405a1f2ef3049d8660225d00365c164736f6c634300060c0033\n}\n",
				"bytecode": {
					"linkReferences": {},
					"object": "608060405234801561001057600080fd5b50610811806100206000396000f3fe60806040526004361061003f5760003560e01c8063800fb83f146100445780638c55174214610072578063bfb231d214610144578063cd31831e14610211575b600080fd5b6100706004803603602081101561005a57600080fd5b810190808035906020019092919050505061024c565b005b34801561007e57600080fd5b506101426004803603604081101561009557600080fd5b81019080803590602001906401000000008111156100b257600080fd5b8201836020820111156100c457600080fd5b803590602001918460018302840111640100000000831117156100e657600080fd5b91908080601f016020809104026020016040519081016040528093929190818152602001838380828437600081840152601f19601f8201169050808301925050505050505091929192908035906020019092919050505061040e565b005b34801561015057600080fd5b5061017d6004803603602081101561016757600080fd5b8101908080359060200190929190505050610515565b6040518084600281111561018d57fe5b815260200180602001838152602001828103825284818151815260200191508051906020019080838360005b838110156101d45780820151818401526020810190506101b9565b50505050905090810190601f1680156102015780820380516001836020036101000a031916815260200191505b5094505050505060405180910390f35b34801561021d57600080fd5b5061024a6004803603602081101561023457600080fd5b81019080803590602001909291905050506105e4565b005b346000808381526020019081526020016000206002015411156102d7576040517f08c379a000000000000000000000000000000000000000000000000000000000815260040180806020018281038252600e8152602001807f4e6f742066756c6c79207061696400000000000000000000000000000000000081525060200191505060405180910390fd5b600060028111156102e457fe5b60008083815260200190815260200160002060000160009054906101000a900460ff16600281111561031257fe5b14610368576040517f08c379a00000000000000000000000000000000000000000000000000000000081526004018080602001828103825260238152602001806107b96023913960400191505060405180910390fd5b600160008083815260200190815260200160002060000160006101000a81548160ff0219169083600281111561039a57fe5b02179055507f8c198761ba3d324d155cbaf96f0ac38a531c085089e49106d95352535a1110c28160008084815260200190815260200160002060000160009054906101000a900460ff1660028111156103ef57fe5b604051808381526020018281526020019250505060405180910390a150565b806000806001548152602001908152602001600020600201819055506000806000600154815260200190815260200160002060000160006101000a81548160ff0219169083600281111561045e57fe5b0217905550816000806001548152602001908152602001600020600101908051906020019061048e92919061071b565b507f8c198761ba3d324d155cbaf96f0ac38a531c085089e49106d95352535a1110c2600154600080600154815260200190815260200160002060000160009054906101000a900460ff1660028111156104e357fe5b604051808381526020018281526020019250505060405180910390a16001600081548092919060010191905055505050565b60006020528060005260406000206000915090508060000160009054906101000a900460ff1690806001018054600181600116156101000203166002900480601f0160208091040260200160405190810160405280929190818152602001828054600181600116156101000203166002900480156105d45780601f106105a9576101008083540402835291602001916105d4565b820191906000526020600020905b8154815290600101906020018083116105b757829003601f168201915b5050505050908060020154905083565b600160028111156105f157fe5b60008083815260200190815260200160002060000160009054906101000a900460ff16600281111561061f57fe5b14610675576040517f08c379a00000000000000000000000000000000000000000000000000000000081526004018080602001828103825260238152602001806107b96023913960400191505060405180910390fd5b600260008083815260200190815260200160002060000160006101000a81548160ff021916908360028111156106a757fe5b02179055507f8c198761ba3d324d155cbaf96f0ac38a531c085089e49106d95352535a1110c28160008084815260200190815260200160002060000160009054906101000a900460ff1660028111156106fc57fe5b604051808381526020018281526020019250505060405180910390a150565b828054600181600116156101000203166002900490600052602060002090601f016020900481019282601f1061075c57805160ff191683800117855561078a565b8280016001018555821561078a579182015b8281111561078957825182559160200191906001019061076e565b5b509050610797919061079b565b5090565b5b808211156107b457600081600090555060010161079c565b509056fe4974656d206973206675727468657220696e2074686520737570706c7920636861696ea26469706673582212206d285387d0cedc8b00d6fbf03a690a38645405a1f2ef3049d8660225d00365c164736f6c634300060c0033",
					"opcodes": "PUSH1 0x80 PUSH1 0x40 MSTORE CALLVALUE DUP1 ISZERO PUSH2 0x10 JUMPI PUSH1 0x0 DUP1 REVERT JUMPDEST POP PUSH2 0x811 DUP1 PUSH2 0x20 PUSH1 0x0 CODECOPY PUSH1 0x0 RETURN INVALID PUSH1 0x80 PUSH1 0x40 MSTORE PUSH1 0x4 CALLDATASIZE LT PUSH2 0x3F JUMPI PUSH1 0x0 CALLDATALOAD PUSH1 0xE0 SHR DUP1 PUSH4 0x800FB83F EQ PUSH2 0x44 JUMPI DUP1 PUSH4 0x8C551742 EQ PUSH2 0x72 JUMPI DUP1 PUSH4 0xBFB231D2 EQ PUSH2 0x144 JUMPI DUP1 PUSH4 0xCD31831E EQ PUSH2 0x211 JUMPI JUMPDEST PUSH1 0x0 DUP1 REVERT JUMPDEST PUSH2 0x70 PUSH1 0x4 DUP1 CALLDATASIZE SUB PUSH1 0x20 DUP2 LT ISZERO PUSH2 0x5A JUMPI PUSH1 0x0 DUP1 REVERT JUMPDEST DUP2 ADD SWAP1 DUP1 DUP1 CALLDATALOAD SWAP1 PUSH1 0x20 ADD SWAP1 SWAP3 SWAP2 SWAP1 POP POP POP PUSH2 0x24C JUMP JUMPDEST STOP JUMPDEST CALLVALUE DUP1 ISZERO PUSH2 0x7E JUMPI PUSH1 0x0 DUP1 REVERT JUMPDEST POP PUSH2 0x142 PUSH1 0x4 DUP1 CALLDATASIZE SUB PUSH1 0x40 DUP2 LT ISZERO PUSH2 0x95 JUMPI PUSH1 0x0 DUP1 REVERT JUMPDEST DUP2 ADD SWAP1 DUP1 DUP1 CALLDATALOAD SWAP1 PUSH1 0x20 ADD SWAP1 PUSH5 0x100000000 DUP2 GT ISZERO PUSH2 0xB2 JUMPI PUSH1 0x0 DUP1 REVERT JUMPDEST DUP3 ADD DUP4 PUSH1 0x20 DUP3 ADD GT ISZERO PUSH2 0xC4 JUMPI PUSH1 0x0 DUP1 REVERT JUMPDEST DUP1 CALLDATALOAD SWAP1 PUSH1 0x20 ADD SWAP2 DUP5 PUSH1 0x1 DUP4 MUL DUP5 ADD GT PUSH5 0x100000000 DUP4 GT OR ISZERO PUSH2 0xE6 JUMPI PUSH1 0x0 DUP1 REVERT JUMPDEST SWAP2 SWAP1 DUP1 DUP1 PUSH1 0x1F ADD PUSH1 0x20 DUP1 SWAP2 DIV MUL PUSH1 0x20 ADD PUSH1 0x40 MLOAD SWAP1 DUP2 ADD PUSH1 0x40 MSTORE DUP1 SWAP4 SWAP3 SWAP2 SWAP1 DUP2 DUP2 MSTORE PUSH1 0x20 ADD DUP4 DUP4 DUP1 DUP3 DUP5 CALLDATACOPY PUSH1 0x0 DUP2 DUP5 ADD MSTORE PUSH1 0x1F NOT PUSH1 0x1F DUP3 ADD AND SWAP1 POP DUP1 DUP4 ADD SWAP3 POP POP POP POP POP POP POP SWAP2 SWAP3 SWAP2 SWAP3 SWAP1 DUP1 CALLDATALOAD SWAP1 PUSH1 0x20 ADD SWAP1 SWAP3 SWAP2 SWAP1 POP POP POP PUSH2 0x40E JUMP JUMPDEST STOP JUMPDEST CALLVALUE DUP1 ISZERO PUSH2 0x150 JUMPI PUSH1 0x0 DUP1 REVERT JUMPDEST POP PUSH2 0x17D PUSH1 0x4 DUP1 CALLDATASIZE SUB PUSH1 0x20 DUP2 LT ISZERO PUSH2 0x167 JUMPI PUSH1 0x0 DUP1 REVERT JUMPDEST DUP2 ADD SWAP1 DUP1 DUP1 CALLDATALOAD SWAP1 PUSH1 0x20 ADD SWAP1 SWAP3 SWAP2 SWAP1 POP POP POP PUSH2 0x515 JUMP JUMPDEST PUSH1 0x40 MLOAD DUP1 DUP5 PUSH1 0x2 DUP2 GT ISZERO PUSH2 0x18D JUMPI INVALID JUMPDEST DUP2 MSTORE PUSH1 0x20 ADD DUP1 PUSH1 0x20 ADD DUP4 DUP2 MSTORE PUSH1 0x20 ADD DUP3 DUP2 SUB DUP3 MSTORE DUP5 DUP2 DUP2 MLOAD DUP2 MSTORE PUSH1 0x20 ADD SWAP2 POP DUP1 MLOAD SWAP1 PUSH1 0x20 ADD SWAP1 DUP1 DUP4 DUP4 PUSH1 0x0 JUMPDEST DUP4 DUP2 LT ISZERO PUSH2 0x1D4 JUMPI DUP1 DUP3 ADD MLOAD DUP2 DUP5 ADD MSTORE PUSH1 0x20 DUP2 ADD SWAP1 POP PUSH2 0x1B9 JUMP JUMPDEST POP POP POP POP SWAP1 POP SWAP1 DUP2 ADD SWAP1 PUSH1 0x1F AND DUP1 ISZERO PUSH2 0x201 JUMPI DUP1 DUP3 SUB DUP1 MLOAD PUSH1 0x1 DUP4 PUSH1 0x20 SUB PUSH2 0x100 EXP SUB NOT AND DUP2 MSTORE PUSH1 0x20 ADD SWAP2 POP JUMPDEST POP SWAP5 POP POP POP POP POP PUSH1 0x40 MLOAD DUP1 SWAP2 SUB SWAP1 RETURN JUMPDEST CALLVALUE DUP1 ISZERO PUSH2 0x21D JUMPI PUSH1 0x0 DUP1 REVERT JUMPDEST POP PUSH2 0x24A PUSH1 0x4 DUP1 CALLDATASIZE SUB PUSH1 0x20 DUP2 LT ISZERO PUSH2 0x234 JUMPI PUSH1 0x0 DUP1 REVERT JUMPDEST DUP2 ADD SWAP1 DUP1 DUP1 CALLDATALOAD SWAP1 PUSH1 0x20 ADD SWAP1 SWAP3 SWAP2 SWAP1 POP POP POP PUSH2 0x5E4 JUMP JUMPDEST STOP JUMPDEST CALLVALUE PUSH1 0x0 DUP1 DUP4 DUP2 MSTORE PUSH1 0x20 ADD SWAP1 DUP2 MSTORE PUSH1 0x20 ADD PUSH1 0x0 KECCAK256 PUSH1 0x2 ADD SLOAD GT ISZERO PUSH2 0x2D7 JUMPI PUSH1 0x40 MLOAD PUSH32 0x8C379A000000000000000000000000000000000000000000000000000000000 DUP2 MSTORE PUSH1 0x4 ADD DUP1 DUP1 PUSH1 0x20 ADD DUP3 DUP2 SUB DUP3 MSTORE PUSH1 0xE DUP2 MSTORE PUSH1 0x20 ADD DUP1 PUSH32 0x4E6F742066756C6C792070616964000000000000000000000000000000000000 DUP2 MSTORE POP PUSH1 0x20 ADD SWAP2 POP POP PUSH1 0x40 MLOAD DUP1 SWAP2 SUB SWAP1 REVERT JUMPDEST PUSH1 0x0 PUSH1 0x2 DUP2 GT ISZERO PUSH2 0x2E4 JUMPI INVALID JUMPDEST PUSH1 0x0 DUP1 DUP4 DUP2 MSTORE PUSH1 0x20 ADD SWAP1 DUP2 MSTORE PUSH1 0x20 ADD PUSH1 0x0 KECCAK256 PUSH1 0x0 ADD PUSH1 0x0 SWAP1 SLOAD SWAP1 PUSH2 0x100 EXP SWAP1 DIV PUSH1 0xFF AND PUSH1 0x2 DUP2 GT ISZERO PUSH2 0x312 JUMPI INVALID JUMPDEST EQ PUSH2 0x368 JUMPI PUSH1 0x40 MLOAD PUSH32 0x8C379A000000000000000000000000000000000000000000000000000000000 DUP2 MSTORE PUSH1 0x4 ADD DUP1 DUP1 PUSH1 0x20 ADD DUP3 DUP2 SUB DUP3 MSTORE PUSH1 0x23 DUP2 MSTORE PUSH1 0x20 ADD DUP1 PUSH2 0x7B9 PUSH1 0x23 SWAP2 CODECOPY PUSH1 0x40 ADD SWAP2 POP POP PUSH1 0x40 MLOAD DUP1 SWAP2 SUB SWAP1 REVERT JUMPDEST PUSH1 0x1 PUSH1 0x0 DUP1 DUP4 DUP2 MSTORE PUSH1 0x20 ADD SWAP1 DUP2 MSTORE PUSH1 0x20 ADD PUSH1 0x0 KECCAK256 PUSH1 0x0 ADD PUSH1 0x0 PUSH2 0x100 EXP DUP2 SLOAD DUP2 PUSH1 0xFF MUL NOT AND SWAP1 DUP4 PUSH1 0x2 DUP2 GT ISZERO PUSH2 0x39A JUMPI INVALID JUMPDEST MUL OR SWAP1 SSTORE POP PUSH32 0x8C198761BA3D324D155CBAF96F0AC38A531C085089E49106D95352535A1110C2 DUP2 PUSH1 0x0 DUP1 DUP5 DUP2 MSTORE PUSH1 0x20 ADD SWAP1 DUP2 MSTORE PUSH1 0x20 ADD PUSH1 0x0 KECCAK256 PUSH1 0x0 ADD PUSH1 0x0 SWAP1 SLOAD SWAP1 PUSH2 0x100 EXP SWAP1 DIV PUSH1 0xFF AND PUSH1 0x2 DUP2 GT ISZERO PUSH2 0x3EF JUMPI INVALID JUMPDEST PUSH1 0x40 MLOAD DUP1 DUP4 DUP2 MSTORE PUSH1 0x20 ADD DUP3 DUP2 MSTORE PUSH1 0x20 ADD SWAP3 POP POP POP PUSH1 0x40 MLOAD DUP1 SWAP2 SUB SWAP1 LOG1 POP JUMP JUMPDEST DUP1 PUSH1 0x0 DUP1 PUSH1 0x1 SLOAD DUP2 MSTORE PUSH1 0x20 ADD SWAP1 DUP2 MSTORE PUSH1 0x20 ADD PUSH1 0x0 KECCAK256 PUSH1 0x2 ADD DUP2 SWAP1 SSTORE POP PUSH1 0x0 DUP1 PUSH1 0x0 PUSH1 0x1 SLOAD DUP2 MSTORE PUSH1 0x20 ADD SWAP1 DUP2 MSTORE PUSH1 0x20 ADD PUSH1 0x0 KECCAK256 PUSH1 0x0 ADD PUSH1 0x0 PUSH2 0x100 EXP DUP2 SLOAD DUP2 PUSH1 0xFF MUL NOT AND SWAP1 DUP4 PUSH1 0x2 DUP2 GT ISZERO PUSH2 0x45E JUMPI INVALID JUMPDEST MUL OR SWAP1 SSTORE POP DUP2 PUSH1 0x0 DUP1 PUSH1 0x1 SLOAD DUP2 MSTORE PUSH1 0x20 ADD SWAP1 DUP2 MSTORE PUSH1 0x20 ADD PUSH1 0x0 KECCAK256 PUSH1 0x1 ADD SWAP1 DUP1 MLOAD SWAP1 PUSH1 0x20 ADD SWAP1 PUSH2 0x48E SWAP3 SWAP2 SWAP1 PUSH2 0x71B JUMP JUMPDEST POP PUSH32 0x8C198761BA3D324D155CBAF96F0AC38A531C085089E49106D95352535A1110C2 PUSH1 0x1 SLOAD PUSH1 0x0 DUP1 PUSH1 0x1 SLOAD DUP2 MSTORE PUSH1 0x20 ADD SWAP1 DUP2 MSTORE PUSH1 0x20 ADD PUSH1 0x0 KECCAK256 PUSH1 0x0 ADD PUSH1 0x0 SWAP1 SLOAD SWAP1 PUSH2 0x100 EXP SWAP1 DIV PUSH1 0xFF AND PUSH1 0x2 DUP2 GT ISZERO PUSH2 0x4E3 JUMPI INVALID JUMPDEST PUSH1 0x40 MLOAD DUP1 DUP4 DUP2 MSTORE PUSH1 0x20 ADD DUP3 DUP2 MSTORE PUSH1 0x20 ADD SWAP3 POP POP POP PUSH1 0x40 MLOAD DUP1 SWAP2 SUB SWAP1 LOG1 PUSH1 0x1 PUSH1 0x0 DUP2 SLOAD DUP1 SWAP3 SWAP2 SWAP1 PUSH1 0x1 ADD SWAP2 SWAP1 POP SSTORE POP POP POP JUMP JUMPDEST PUSH1 0x0 PUSH1 0x20 MSTORE DUP1 PUSH1 0x0 MSTORE PUSH1 0x40 PUSH1 0x0 KECCAK256 PUSH1 0x0 SWAP2 POP SWAP1 POP DUP1 PUSH1 0x0 ADD PUSH1 0x0 SWAP1 SLOAD SWAP1 PUSH2 0x100 EXP SWAP1 DIV PUSH1 0xFF AND SWAP1 DUP1 PUSH1 0x1 ADD DUP1 SLOAD PUSH1 0x1 DUP2 PUSH1 0x1 AND ISZERO PUSH2 0x100 MUL SUB AND PUSH1 0x2 SWAP1 DIV DUP1 PUSH1 0x1F ADD PUSH1 0x20 DUP1 SWAP2 DIV MUL PUSH1 0x20 ADD PUSH1 0x40 MLOAD SWAP1 DUP2 ADD PUSH1 0x40 MSTORE DUP1 SWAP3 SWAP2 SWAP1 DUP2 DUP2 MSTORE PUSH1 0x20 ADD DUP3 DUP1 SLOAD PUSH1 0x1 DUP2 PUSH1 0x1 AND ISZERO PUSH2 0x100 MUL SUB AND PUSH1 0x2 SWAP1 DIV DUP1 ISZERO PUSH2 0x5D4 JUMPI DUP1 PUSH1 0x1F LT PUSH2 0x5A9 JUMPI PUSH2 0x100 DUP1 DUP4 SLOAD DIV MUL DUP4 MSTORE SWAP2 PUSH1 0x20 ADD SWAP2 PUSH2 0x5D4 JUMP JUMPDEST DUP3 ADD SWAP2 SWAP1 PUSH1 0x0 MSTORE PUSH1 0x20 PUSH1 0x0 KECCAK256 SWAP1 JUMPDEST DUP2 SLOAD DUP2 MSTORE SWAP1 PUSH1 0x1 ADD SWAP1 PUSH1 0x20 ADD DUP1 DUP4 GT PUSH2 0x5B7 JUMPI DUP3 SWAP1 SUB PUSH1 0x1F AND DUP3 ADD SWAP2 JUMPDEST POP POP POP POP POP SWAP1 DUP1 PUSH1 0x2 ADD SLOAD SWAP1 POP DUP4 JUMP JUMPDEST PUSH1 0x1 PUSH1 0x2 DUP2 GT ISZERO PUSH2 0x5F1 JUMPI INVALID JUMPDEST PUSH1 0x0 DUP1 DUP4 DUP2 MSTORE PUSH1 0x20 ADD SWAP1 DUP2 MSTORE PUSH1 0x20 ADD PUSH1 0x0 KECCAK256 PUSH1 0x0 ADD PUSH1 0x0 SWAP1 SLOAD SWAP1 PUSH2 0x100 EXP SWAP1 DIV PUSH1 0xFF AND PUSH1 0x2 DUP2 GT ISZERO PUSH2 0x61F JUMPI INVALID JUMPDEST EQ PUSH2 0x675 JUMPI PUSH1 0x40 MLOAD PUSH32 0x8C379A000000000000000000000000000000000000000000000000000000000 DUP2 MSTORE PUSH1 0x4 ADD DUP1 DUP1 PUSH1 0x20 ADD DUP3 DUP2 SUB DUP3 MSTORE PUSH1 0x23 DUP2 MSTORE PUSH1 0x20 ADD DUP1 PUSH2 0x7B9 PUSH1 0x23 SWAP2 CODECOPY PUSH1 0x40 ADD SWAP2 POP POP PUSH1 0x40 MLOAD DUP1 SWAP2 SUB SWAP1 REVERT JUMPDEST PUSH1 0x2 PUSH1 0x0 DUP1 DUP4 DUP2 MSTORE PUSH1 0x20 ADD SWAP1 DUP2 MSTORE PUSH1 0x20 ADD PUSH1 0x0 KECCAK256 PUSH1 0x0 ADD PUSH1 0x0 PUSH2 0x100 EXP DUP2 SLOAD DUP2 PUSH1 0xFF MUL NOT AND SWAP1 DUP4 PUSH1 0x2 DUP2 GT ISZERO PUSH2 0x6A7 JUMPI INVALID JUMPDEST MUL OR SWAP1 SSTORE POP PUSH32 0x8C198761BA3D324D155CBAF96F0AC38A531C085089E49106D95352535A1110C2 DUP2 PUSH1 0x0 DUP1 DUP5 DUP2 MSTORE PUSH1 0x20 ADD SWAP1 DUP2 MSTORE PUSH1 0x20 ADD PUSH1 0x0 KECCAK256 PUSH1 0x0 ADD PUSH1 0x0 SWAP1 SLOAD SWAP1 PUSH2 0x100 EXP SWAP1 DIV PUSH1 0xFF AND PUSH1 0x2 DUP2 GT ISZERO PUSH2 0x6FC JUMPI INVALID JUMPDEST PUSH1 0x40 MLOAD DUP1 DUP4 DUP2 MSTORE PUSH1 0x20 ADD DUP3 DUP2 MSTORE PUSH1 0x20 ADD SWAP3 POP POP POP PUSH1 0x40 MLOAD DUP1 SWAP2 SUB SWAP1 LOG1 POP JUMP JUMPDEST DUP3 DUP1 SLOAD PUSH1 0x1 DUP2 PUSH1 0x1 AND ISZERO PUSH2 0x100 MUL SUB AND PUSH1 0x2 SWAP1 DIV SWAP1 PUSH1 0x0 MSTORE PUSH1 0x20 PUSH1 0x0 KECCAK256 SWAP1 PUSH1 0x1F ADD PUSH1 0x20 SWAP1 DIV DUP2 ADD SWAP3 DUP3 PUSH1 0x1F LT PUSH2 0x75C JUMPI DUP1 MLOAD PUSH1 0xFF NOT AND DUP4 DUP1 ADD OR DUP6 SSTORE PUSH2 0x78A JUMP JUMPDEST DUP3 DUP1 ADD PUSH1 0x1 ADD DUP6 SSTORE DUP3 ISZERO PUSH2 0x78A JUMPI SWAP2 DUP3 ADD JUMPDEST DUP3 DUP2 GT ISZERO PUSH2 0x789 JUMPI DUP3 MLOAD DUP3 SSTORE SWAP2 PUSH1 0x20 ADD SWAP2 SWAP1 PUSH1 0x1 ADD SWAP1 PUSH2 0x76E JUMP JUMPDEST JUMPDEST POP SWAP1 POP PUSH2 0x797 SWAP2 SWAP1 PUSH2 0x79B JUMP JUMPDEST POP SWAP1 JUMP JUMPDEST JUMPDEST DUP1 DUP3 GT ISZERO PUSH2 0x7B4 JUMPI PUSH1 0x0 DUP2 PUSH1 0x0 SWAP1 SSTORE POP PUSH1 0x1 ADD PUSH2 0x79C JUMP JUMPDEST POP SWAP1 JUMP INVALID 0x49 PUSH21 0x656D206973206675727468657220696E2074686520 PUSH20 0x7570706C7920636861696EA26469706673582212 KECCAK256 PUSH14 0x285387D0CEDC8B00D6FBF03A690A CODESIZE PUSH5 0x5405A1F2EF ADDRESS 0x49 0xD8 PUSH7 0x225D00365C164 PUSH20 0x6F6C634300060C00330000000000000000000000 "
				},
				"gasEstimates": {
					"creation": {
						"codeDepositCost": "413000",
						"executionCost": "449",
						"totalCost": "413449"
					},
					"external": {
						"createItem(string,uint256)": "infinite",
						"items(uint256)": "infinite",
						"triggerDelivery(uint256)": "infinite",
						"triggerPayment(uint256)": "infinite"
					}
				},
				"methodIdentifiers": {
					"createItem(string,uint256)": "8c551742",
					"items(uint256)": "bfb231d2",
					"triggerDelivery(uint256)": "cd31831e",
					"triggerPayment(uint256)": "800fb83f"
				}
			},
			"storageLayout": {
				"storage": [
					{
						"astId": 100,
						"contract": "ItemManager.sol:ItemManager",
						"label": "items",
						"offset": 0,
						"slot": "0",
						"type": "t_mapping(t_uint256,t_struct(S_Item)96_storage)"
					},
					{
						"astId": 102,
						"contract": "ItemManager.sol:ItemManager",
						"label": "index",
						"offset": 0,
						"slot": "1",
						"type": "t_uint256"
					}
				],
				"types": {
					"t_enum(SupplyChainSteps)89": {
						"encoding": "inplace",
						"label": "enum ItemManager.SupplyChainSteps",
						"numberOfBytes": "1"
					},
					"t_mapping(t_uint256,t_struct(S_Item)96_storage)": {
						"encoding": "mapping",
						"key": "t_uint256",
						"label": "mapping(uint256 => struct ItemManager.S_Item)",
						"numberOfBytes": "32",
						"value": "t_struct(S_Item)96_storage"
					},
					"t_string_storage": {
						"encoding": "bytes",
						"label": "string",
						"numberOfBytes": "32"
					},
					"t_struct(S_Item)96_storage": {
						"encoding": "inplace",
						"label": "struct ItemManager.S_Item",
						"members": [
							{
								"astId": 91,
								"contract": "ItemManager.sol:ItemManager",
								"label": "_step",
								"offset": 0,
								"slot": "0",
								"type": "t_enum(SupplyChainSteps)89"
							},
							{
								"astId": 93,
								"contract": "ItemManager.sol:ItemManager",
								"label": "_identifier",
								"offset": 0,
								"slot": "1",
								"type": "t_string_storage"
							},
							{
								"astId": 95,
								"contract": "ItemManager.sol:ItemManager",
								"label": "_priceInWei",
								"offset": 0,
								"slot": "2",
								"type": "t_uint256"
							}
						],
						"numberOfBytes": "96"
					},
					"t_uint256": {
						"encoding": "inplace",
						"label": "uint256",
						"numberOfBytes": "32"
					}
				}
			},
			"userdoc": {
				"kind": "user",
				"methods": {},
				"version": 1
			}
		}
	}
}